:100000000C9487040C94AF040C94AF040C94AF04CC
:100010000C94AF040C94AF040C94AF040C94AF0494
:100020000C94AF040C94AF040C94AF040C94612FA7
:100030000C94AF040C94BD090C94AF040C94AF0461
:100040000C94FD300C94AF040C942C330C947A3344
:100050000C94AF040C94AF040C94AF040C94AF0454
:100060000C94AF040C94AF045B0162016D01750147
:1000700046696C65206E6F7420666F756E64210032
:100080004572726F72210A00730A0073202F2000DC
:1000900010001D00730A0073202F20001B1A20532C
:1000A00065656B001720204D656E75001620205386
:1000B000746F7000152020506C61792F506175733A
:1000C000650010001D0047572D506C617965720066
:1000D000507265737320152F162F1720746F2065CB
:1000E0007869742100436F70797269676874203190
:1000F000322F30312F31352062790A4D7565737397
:100100006967620A00437265646974730A0021209A
:1001100053442063617264206E6F74207072657343
:10012000656E74001D2052656164696E67205344DA
:1001300020636172642E2E2E0A001D205365747494
:10014000696E6720757020617564696F2E2E2E0AA6
:100150000047572D506C61796572005265706C6173
:1001600079004C6F6164204D75736963004372655B
:10017000646974730052657475726E20746F204CDC
:100180006F61646572007C3C3E5E2B3D3F2F5B5D82
:100190003B2C2A225C000303070507050405050420
:1001A000050306030207020201020203020E090E02
:1001B0000E0D0E0E0F0E070507050307050F0507A9
:1001C00005070607010205020007020207000207F1
:1001D00002000207020007060306070702020505E0
:1001E00002010202040200050202050006070505DD
:1001F0000705020302020602000000000B000300D4
:1002000003070507040701050205070704000300AB
:10021000000705050700050005020702000C0002A3
:100220000202000400040201070507050704010794
:100230000405070203020704070107060601010778
:10024000070707030307000500000D00020500056E
:1002500005050005020107030F090306030607074A
:100260000202050507070207070507030107050640
:10027000070207050705040403070205070404072E
:10028000030707010607050707030307050307031D
:100290000604070101070107040703040307060713
:1002A0000502050106010107040007050102040516
:1002B00007000201020808080003000603060707FA
:1002C00002020505070502070705070301070506E2
:1002D00007020705070504040307020507040407CE
:1002E00003070701060705070703030705030703BD
:1002F00006040701010701070407030403070607B3
:1003000005020501060101070402070500070005B3
:10031000070206020307050703053F213F120812E3
:100320000A100A0E1C0E0C1E0C141A14161F161E90
:10033000131E1E1B1E1E1F1E3F213F3A2F3A173D44
:10034000173F213F181F02040A041F0E04040E1F4A
:100350000A1F0A0E0E1F04110E2E252E2F2A2E26DE
:100360002929021F02081F08150E04040E150E1578
:10037000151B151B040604040C04000000001700E4
:100380000300031F0A1F16371A1904130A153A002F
:100390000300000E11110E000A040A040E040030BE
:1003A000000404040010001804031F111F121F1082
:1003B0001D151711151F07041F17151D1F151D01EA
:1003C000011F1F151F17151F000A00003200040A25
:1003D000110A0A0A110A040115020E11171E051E40
:1003E0001F150A0E110A1F110E1F15111F05010EF0
:1003F000111D1F041F111F1108100F1F041B1F10B8
:10040000101F061F1E040F0E110E1F09060E112EBF
:100410001F051A121509011F011F101F0F180F1FAA
:100420000C1F1B041B031C03191513001F110304CD
:1004300018111F000201022020200001020C121ED0
:100440001F120C0C12120C121F0C1A14041E05247D
:100450002A1E1F021C141D1020201D1F0814111F0E
:10046000101E041E1E021C0C120C3E0A040C123E2E
:100470001E040214160A020F120E101E0E100E1E7B
:10048000081E120C1226281E322A26041E21001FC6
:1004900000211E040102013F213F05077F41414128
:1004A0007F3E5B4F5B3E3E6B4F6B3E183C783C188B
:1004B000183C7E3C181C577D571C1C5E7F5E1C0040
:1004C0007E43437E007E73737E007E7F7F7E7F410E
:1004D00041417F30483A060E06297929067F41417D
:1004E000417F60703F02042A1C361C2A7F3E1C0894
:1004F0000000081C3E7F14227F22143C3C3C7EFFFF
:1005000018423C817E3E6375633E3E616B633E3EB6
:10051000636B6B3E04027F020410207F20100808EA
:100520002A1C08081C2A0808143E554122637569D4
:10053000756310181C1810040C1C0C04000000003B
:100540000000005F00000007000700147F147F1404
:10055000042A7F2A1023130864623649562050006B
:1005600008070300001C2241000041221C002A1C35
:100570003E1C2A08083E080800E060000008080841
:100580000808006060000060100804033E514945FF
:100590003E00427F400062514949462141494D3366
:1005A0001814127F1027454545393C4A49493041C6
:1005B000211109073649494936064949291E0000D3
:1005C0002400000080640000081422410014141468
:1005D0001414004122140802015909063E415D59D4
:1005E0004E7C1211127C7F494949363E41414122DD
:1005F0007F4141221C7F494949417F090909013E48
:10060000414151327F0808087F00417F410020416D
:10061000413F017F081422417F404040407F020C4F
:10062000027F7F0204087F3E4141413E7F09090964
:10063000063E416141BE7F09192946264949493292
:1006400001017F01013F4040403F1F2040201F3FEC
:100650004038403F63140814630304780403615175
:10066000494543007F4141000304081060004141B7
:100670007F0004020102048080808080000307085C
:100680000020545478407F28444438384444442857
:10069000384444287F3854545418087E09090218F5
:1006A000A4A49C787F0804047800447D4000006086
:1006B00080847D7F1010284400417F40007C0478B6
:1006C00004787C080404783844444438FC18242412
:1006D0001818242418FC7C080404080854545420D6
:1006E000043F4444203C4040207C1C2040201C3CD3
:1006F0004020403C44281028444C9090907C446416
:10070000544C44000836410000007F000000413690
:100710000800180408100C7F4141417F0A4E6F20E9
:1007200053442063617264206F720A6E6F204C4FD5
:10073000414445522E4845580A0A153A457869748D
:10074000001D20466C617368696E670A20206C6F1B
:10075000616465722E2E2E0A0A444F4E275420548F
:1007600055524E204F464621006D560A0A504C45C0
:100770004153450A5455524E204F4646004C4F5760
:1007800020424154544552590A001773617665005E
:10079000166261636B001574797065000A0A0A15A8
:1007A0003A6F6B617920163A6564697400596F7508
:1007B00020656E74657265640A00540A03E18186DF
:1007C0007F3E186D830F0F0E0183866033186DC353
:1007D000198F1803C38E6033186DE330CF1803C32D
:1007E0009E603630CDE360CF3006C79E7E3E30CD72
:1007F000B360CF300CC6F6603330D9B660CF33CF9C
:10080000CCF66061B0DB1E60CF30D86CE6C061B062
:10081000DB1E618F19986CC6C063B19B0E330F0F3E
:10082000B078C6FF7E1F1B061E0F17534400161319
:100830007800161314001510200015201000000079
:100840000500893008023802497868140000450024
:10085000680100000500680138010000050038014A
:1008600068010000F6E8DBCFC3B8AEA49B928A8291
:100870007B746E68625C57524E4945413E3A37344C
:10088000312E2C29272523211F1D1C1A1917161557
:1008900014131211100F0E0D0C0B0A09080706A3F2
:1008A00008A7080101F7030101FF0300000000246D
:1008B0000027002A0000000000250028002B00006F
:1008C000000000230026002900040404040404049A
:1008D00004020202020202030303030303010204EF
:1008E00008102040800102040810200102040810B2
:1008F00020000000070002010000030406000000C1
:10090000000000000000D704370C5F34D00411242D
:100910001FBECFEFD8E0DEBFCDBF11E0A0E0B1E059
:10092000E6E2F0E702C005900D92A035B107D9F7D5
:1009300017E0A0E5B1E001C01D92A439B107E1F7CD
:1009400019E0CCE0D9E004C02297FE010E94DB3719
:10095000C630D107C9F70E94B5340C9406380C9400
:1009600000008130910591F46F5F7F4FC1F41092C8
:10097000A1011092A0018BE391E090939F018093DD
:100980009E018CE592E00E94850A0895892B39F436
:100990006F5F7F4F21F48CE592E00E94980A0895E2
:1009A00080E090E06FEF7FEF0E94B104089581E056
:1009B00090E06FEF7FEF0E94B1040895809178027C
:1009C0008823D9F5E0915802F09159026191F09392
:1009D0005902E093580270E060587F4F83E00E9414
:1009E000FC31209158023091590280915A02909125
:1009F0005B022817390708F12091560230915702FF
:100A000081E090E0821B930B9093570280935602F3
:100A1000809156029091570226E0880F991F2A95DF
:100A2000E1F78A529E4F9093590280935802805C5E
:100A30009F4F90935B0280935A02089580E591E066
:100A400068E670E041E00E94B129882301F5109228
:100A500059021092580210925B0210925A021092A0
:100A6000790210927A0210927B0210927C0210920C
:100A700081021092820210928302109284028CE50D
:100A800092E040E050E060E070E00E941F0B81E0E7
:100A90008093A40108950F938EE991E060E00E9495
:100AA000F71E8EE991E068E045E12CE405E00E9444
:100AB000901F8EE991E060E04DE027E007E00E94A2
:100AC000901F8EE991E061E00E94F71E8EE991E0AF
:100AD0006AE974E00E94F2211092A7018DE08093F0
:100AE000A80180917802882329F08EE991E062E9DB
:100AF00070E004C08EE991E060E970E00E94EE349D
:100B00008EE991E068E173E00E94F22188E0809331
:100B1000A70185E18093A8014091790250917A0262
:100B200060917B0270917C028EE991E02AE030E0D6
:100B30000E94CD358EE991E06BE870E00E94EE34C2
:100B400040917D0250917E0260917F0270918002FF
:100B50008EE991E02AE030E00E94CD358EE991E007
:100B600068E870E00E94EE348EE991E00E943A233A
:100B70000F9108950F938EE991E00E947A238EE9F8
:100B800091E06AE974E00E94F2218EE991E065E06B
:100B900071E00E9439358EE991E060E048E024E59B
:100BA00008E00E94FF1E8EE991E068E173E00E9478
:100BB000F2218EE991E065EE70E00E9439358EE910
:100BC00091E060ED70E00E9439358EE991E00E947D
:100BD0003A2381E08093A40180E591E00E941926E8
:100BE0008823D1F38AE591E064E00E94321E8823D5
:100BF00071F48AE591E065E00E94321E882339F4A1
:100C00008AE591E066E00E94321E882329F30F9165
:100C100008950F931F938EE991E00E947A238EE945
:100C200091E06AE974E00E94F2218EE991E066ECBD
:100C300070E00E94EE348EE991E060E048E024E547
:100C400008E00E94FF1E1092A7018DE08093A8018A
:100C500080917802882329F08EE991E064EC70E0BD
:100C600004C08EE991E062EC70E00E94EE3408E08E
:100C70000093A7018DE08093A8018EE991E069E0DF
:100C800071E00E94ED358EE991E066E971E00E9425
:100C9000F22118E11093A7018EE18093A8018EE95B
:100CA00091E064EB70E00E9439351093A7018EE962
:100CB00091E06CEA70E00E9439351093A7018EE94B
:100CC00091E064EA70E00E9439351093A7018EE943
:100CD00091E06CE970E00E9439358EE991E068E1BD
:100CE00073E00E94F2210093A70185E18093A8019F
:100CF0004091790250917A0260917B0270917C025E
:100D00008EE991E02AE030E00E94CD358EE991E055
:100D100067E970E00E94EE3440917D0250917E02BE
:100D200060917F02709180028EE991E02AE030E0CC
:100D30000E94CD358EE991E064E970E00E9439357A
:100D40008EE991E00E943A231F910F91089510922D
:100D500077021092780289E892E00E947F0A65E0AB
:100D600070E080E090E00E94793183E060E070E024
:100D70000E94FC31109259021092580210925B02AC
:100D800010925A021092790210927A0210927B020B
:100D900010927C0210927D0210927E0210927F02CD
:100DA00010928002109281021092820210928302AD
:100DB000109284021092860210928502109288028C
:100DC000109287028CE592E00E940D0B0895EF923D
:100DD000FF920F931F931092780281E08093770225
:100DE0004CE5E42E42E0F42E06ED11E0C701B80117
:100DF00040E450E00E94310B1092570210925602CC
:100E0000809156029091570236E0880F991F3A95CB
:100E1000E1F7800F911F9093590280935802805CF4
:100E20009F4F90935B0280935A0289E892E06EEDA7
:100E300074E02FEF3FEF4FEF5FEF0E94600AC701B2
:100E40000E94ED0A20E23EE440E050E00E949C3720
:100E500020937D0230937E0240937F025093800264
:100E60001F910F91FF90EF900895DF92EF92FF9204
:100E70000F931F93DF93CF93CDB7DEB76B970FB66A
:100E8000F894DEBF0FBECDBF0E94A706DD24D39429
:100E90008E010F5F1F4F5DE0E52EF12CEC0EFD1E65
:100EA00080E591E069E071E04CE00E94D226D092AA
:100EB000A401C8016FE872E049E051E021E00E941E
:100EC000000D8B819C8190935F0280935E028D81E7
:100ED0009E81AF81B8858093600290936102A09358
:100EE0006202B093630289859A85AB85BC85809345
:100EF000640290936502A0936602B0936702A8E62D
:100F0000B2E0F7018DE001900D928150E1F78A8DFA
:100F10009B8D9093760280937502C8010E94980A77
:100F20008CE592E00E94000B882381F00E94E70686
:100F30006B960FB6F894DEBF0FBECDBFCF91DF9199
:100F40001F910F91FF90EF90DF9008958EE991E04F
:100F50000E947A238EE991E060E870E00E943935C2
:100F60008EE991E060E770E00E9439358EE991E00A
:100F70000E943A2368EB7BE080E090E00E947931A8
:100F80008FCF1BC080E591E06AE670E043E00E94ED
:100F9000B129813049F0823051F0882371F40E94E8
:100FA00035070E94090609C00E94BA0506C00E94C2
:100FB000A70680E591E00E94EC24809177028823C7
:100FC00009F381E08093A4010895AF92BF92CF927C
:100FD000DF92EF92FF920F931F9380917702882305
:100FE00009F46AC080917802882309F065C08CE515
:100FF00092E00E94DA0A7B018C018CE592E00E946B
:10100000ED0AE616F7060807190708F04FC08CE549
:1010100092E066E172E040E450E00E94310B809182
:101020005602909157020197D1F78CE592E066ED58
:1010300071E040E450E00E94310B31C08CE592E059
:101040000E94DA0A2091810230918202409183024B
:1010500050918402621B730B840B950B60527E448B
:1010600080409040E0F08CE592E00E94DA0A6093C4
:10107000810270938202809383029093840220E223
:101080003EE440E050E00E949C3720937902309388
:101090007A0240937B0250937C020E944B05809120
:1010A000560290915702892B49F606C00E94A70666
:1010B0000E94C1070E94090680E591E00E9419265E
:1010C000882309F4FDC08AE591E064E00E94321EA5
:1010D000882359F090E080917802882309F491E008
:1010E000909378020E944B05EBC08AE591E065E0A1
:1010F0000E94321E882309F05CC08AE591E066E018
:101100000E94321E882361F01091780281E0809362
:1011100078020E941E050E94090610937802D0C032
:101120008AE591E062E00E94641E882309F4B0C061
:1011300080917702882309F4ABC080918702909157
:101140008802892B19F481E0809378028AE591E086
:1011500062E00E94641E8093870210928802B0C0F1
:1011600080917702882309F49BC0209187023091F7
:10117000880280E29EE4AC01249FC001259F900D6F
:10118000349F900D11245C01CC24DD248CE592E089
:101190000E94DA0A7B018C018CE592E00E94ED0A44
:1011A000EA0CFB1C0C1D1D1DE616F70608071907A7
:1011B00038F00E94A7060E94C1070E94090680C05D
:1011C0008CE592E00E94DA0AA60EB71EC81ED91E50
:1011D0008CE592E0B601A5010E941F0B10927802E7
:1011E00010928802109287026BC080917702882348
:1011F00009F45EC08091850290918602892B19F4D2
:1012000081E0809378028AE591E060E00E94641EAC
:10121000809385021092860253C0809177028823C2
:1012200009F44EC0209185023091860280E29EE44E
:10123000AC01249FC001259F900D349F900D112477
:101240005C01CC24DD248CE592E00E94DA0A6A1568
:101250007B058C059D0569F08CE592E00E94DA0A19
:10126000AB01BC014A195B096C097D098CE592E070
:1012700006C08CE592E040E050E060E070E00E9443
:101280001F0B10927802109286021092850218C0ED
:101290008AE591E062E00E943C1E882309F060CF5D
:1012A0008AE591E060E00E94641E882309F09DCFEA
:1012B0008AE591E060E00E943C1E882309F0ADCFF2
:1012C0001F910F91FF90EF90DF90CF90BF90AF9064
:1012D000089580E591E00E947B2C80E591E061E536
:1012E00071E00E94762C8EE991E00E947A2381E0E1
:1012F0008093A401109268018EE991E06AE371E0A5
:101300000E94EE3483E061E00E945C328091B10083
:10131000887F81608093B10089E892E042E350E0E9
:1013200060E070E00E94580A8EE991E064E271E0AA
:101330000E94EE348EE991E00E943A238AE061E057
:101340000E945C328FE892E06AE00E94970D882349
:1013500079F48EE991E00E9419358EE991E06EE012
:1013600071E00E9439358EE991E00E943A23FFCF67
:101370000E94C1070E94090608951F920F920FB69E
:101380000F9211242F933F934F935F936F937F930B
:101390008F939F93AF93BF93EF93FF93E0918D0251
:1013A000F0918E020995FF91EF91BF91AF919F91BE
:1013B0008F917F916F915F914F913F912F910F90FE
:1013C0000FBE0F901F901895FC01A3E0440F551F0E
:1013D000661F771FAA95D1F7403080E0580781E05B
:1013E000680780E0780714F481E010C033E0759559
:1013F0006795579547953A95D1F7403080E0580763
:1014000081E0680780E078071CF482E0828339C0BD
:1014100023E075956795579547952A95D1F7403004
:1014200080E0580781E0680780E0780714F483E0E3
:10143000EDCF92E075956795579547959A95D1F7B9
:10144000403080E0580781E0680780E0780714F4B6
:1014500084E0DCCF82E075956795579547958A952E
:10146000D1F7403080E0580781E0680780E07807D6
:1014700014F485E0CBCF85E082834FEF5FEF60E02F
:1014800070E08FB78383F894518340835093870033
:101490004093860083818FBF80918100887F8093F5
:1014A0008100809181009281892B80938100089531
:1014B0001092800020E1209381000E94E4090895A9
:1014C0000F931F93CF93DF93EC018B01121613063A
:1014D0001406150624F4BA01A9010E94E4091D832B
:1014E0000C8381E080936F00809181009A81892B29
:1014F00080938100DF91CF911F910F910895EFE6C6
:10150000F0E080818E7F80830895FC011382128237
:1015100088EE93E0A0E0B0E084839583A683B78350
:1015200083E291E091838083128E118E1486089558
:10153000FC0183E291E0918380830895DF93CF9350
:101540000F92CDB7DEB7FC016983A081B1811296FD
:101550002D913C911397BE016F5F7F4F41E050E0AA
:10156000F90109950F90CF91DF910895DC0159960B
:10157000ED91FC915A97309719F420E030E018C0B3
:10158000238934894589568982859385A485B585C3
:10159000281B390B4A0B5B0B2030B0E83B07B0E04F
:1015A0004B07B0E05B0720F02FEF3FE740E050E053
:1015B000C9010895DC015996ED91FC915A97309735
:1015C00029F42FEF3FEF4FEF5FEF04C02285338503
:1015D00044855585B901CA010895DC015996ED91FC
:1015E000FC915A97309729F420E030E040E050E039
:1015F00004C02389348945895689B901CA010895EF
:10160000DC015996ED91FC915A97309711F480E0E6
:1016100008958581811181E00895CF93DF93EC01D6
:10162000898D9A8D009741F00E942012898D9A8DA4
:101630000E9465301A8E198EDF91CF910895FC01BA
:10164000818D928D009711F480E008950E94101111
:101650000895FC01818D928D009711F00E94D611A2
:101660000895FC01818D928D009719F420E030E0FF
:1016700003C00E94F7129C01C9010895DF93CF9324
:101680000F92CDB7DEB7FC01818D928D009749F0A6
:10169000BE016F5F7F4F41E050E00E94F71201975B
:1016A00019F02FEF3FEF03C08981282F30E0C901E7
:1016B0000F90CF91DF910895EF92FF920F931F93B8
:1016C000DF93CF930F92CDB7DEB77C01DC01599643
:1016D0008D919C915A97009719F400E010E01FC07B
:1016E000BE016F5F7F4F41E050E00E94F71201970B
:1016F00019F00FEF1FEF13C08981082F10E0D701F9
:101700005996ED91FC915A9742855385648575856C
:101710004150504060407040CF010E941011C801FC
:101720000F90CF91DF911F910F91FF90EF9008954F
:10173000CF93DF93EC01E98DFA8D309761F013823E
:101740001282CF010E943C159C01E98DFA8D8281A5
:101750009381892B31F081E090E09B838A8320E0A4
:1017600030E0C901DF91CF910895EF92FF920F937E
:101770001F93CF93DF93EC01F62EE72E8A011B8295
:101780001A8288EE93E0A0E0B0E08C839D83AE8364
:10179000BF8383E291E0998388838DE190E00E948A
:1017A000DE2F9A8F898F009791F0DC018F2D9E2D6F
:1017B0009C01F9018DE101900D928150E1F7CE017C
:1017C0000C96B8014CE050E00E94F737188EDF917C
:1017D000CF911F910F91FF90EF900895CF93DF93DA
:1017E0009C01FB0182819381D90113969C938E9376
:1017F000129783E391E011969C938E9384811496C3
:101800008C931497858115968C9386819781A085FA
:10181000B185E9018E839F83A887B98782859385E7
:10182000A485B5858A879B87AC87BD878685978584
:10183000A089B1898E879F87A88BB98B82898A8B73
:1018400083899489A589B6898B8B9C8BAD8BBE8B44
:101850008789908DA18DB28D8F8B988FA98FBA8F2C
:10186000838D948D9C8F8B8FDF91CF9108951092F3
:101870009402109295021092980210929A0282E0BD
:1018800090E0A0E0B0E080939B0290939C02A09334
:101890009D02B0939E021092B2021092BC0210926E
:1018A000BB0283E391E09093BA028093B902109255
:1018B000BE0208952F923F924F925F926F927F9255
:1018C0008F929F92AF92BF92CF92DF92EF92FF9250
:1018D0000F931F93DF93CF93CDB7DEB7C754D0409C
:1018E0000FB6F894DEBF0FBECDBF782E692E2A0149
:1018F00019018E01025F1F4F665D7F4FC8010E9474
:10190000EE0B1EA61DA683E391E09CA78BA718AA49
:101910007201B02EA12E3BE2C32ED12CCC0EDD1EC7
:101920004E010894811C911C3BC0F70180818F32CD
:1019300021F40894E11CF11C33C0422F4E194D30A4
:1019400008F04CE0042F10E0C401B701A8010E9488
:10195000F737F401E00FF11F1082C6010E94201238
:10196000C6016B2D7A2DA40121E00E9469178823FE
:1019700051F4E72DF62D1382128283E391E09183D7
:101980008083158221C0E00EF11E8B2D9A2D0E94BE
:10199000201296018B2D9A2D6C01C901B22EA92E11
:1019A000C7016FE270E00E94EC379C01009709F0DC
:1019B000BCCFE418F508F101F182E082872D962D65
:1019C0006B2D7A2D0E94EE0B872D962DC95BDF4F74
:1019D0000FB6F894DEBF0FBECDBFCF91DF911F9140
:1019E0000F91FF90EF90DF90CF90BF90AF909F90BE
:1019F0008F907F906F905F904F903F902F900895C1
:101A00009F92AF92BF92CF92DF92EF92FF920F938D
:101A10001F93DF93CF93CDB7DEB7C657D0400FB635
:101A2000F894DEBF0FBECDBFA82E992E8A01B22E2C
:101A300043E0C42ED12CCC0EDD1EC601A8019E01B0
:101A40002F5F3F4F0E945A0CE980FA80E00EF11E92
:101A5000F7018081882369F48E01005E1F4FC80161
:101A6000B6010E94EE0B8A2D992DB80140E051E09D
:101A700047C0FE01FF961182108283E391E09EAF82
:101A80008DAFFE01EE5BFF4F108228852223A9F067
:101A90002250CE01CD96223048F469EB72E0A701C6
:101AA0002B2D0E946917882381F407C0B601A70176
:101AB0002B2D0E946917882329F48A2D992D0E94C5
:101AC000850A20C0C6010E942012F6E0BF2259F00C
:101AD000FE01E05BFF4F4081518162817381CE0145
:101AE000CD960E9410118E01065A1F4FC801BE01EB
:101AF000635C7F4F0E94EE0B8A2D992DB801A701E0
:101B00000E94B50B8A2D992DCA58DF4F0FB6F89455
:101B1000DEBF0FBECDBFCF91DF911F910F91FF9020
:101B2000EF90DF90CF90BF90AF909F9008950F936C
:101B30001F93CF93DF93EC01462F61E00E94FC0FCF
:101B40008823D1F08E01045F1F4FC801BE0141E020
:101B50000E940A19882339F4C801BE0140E00E949E
:101B60000A19882349F0CE018A96B8010E945614BA
:101B7000882319F081E001C080E0DF91CF911F91AF
:101B80000F910895FC01673020F086E1858380E0A5
:101B90000895262F30E060FD02C0663019F48DB53F
:101BA0008E7F02C08DB581608DBD8CB58C7F8CBD64
:101BB0004CB522FD02C090E001C092E03695279519
:101BC000822F8170842B892B8CBD81E00895FF9238
:101BD0000F931F93CF93DF938B010E944531EB014D
:101BE000FF24FA94FEBC0DB407FEFDCF8EB58F3FE7
:101BF00011F481E008C00E9445316C1B7D0B601719
:101C0000710780F380E0DF91CF911F910F91FF90DA
:101C10000895FC01848160E00E94C8320895FC01AF
:101C2000848161E00E94C8320895DC016EBDFA0132
:101C300020E030E00DB407FEFDCF80818EBD0DB4F5
:101C400007FEFDCF81818EBD2E5F3F4F329682E031
:101C50002030380779F70DB407FEFDCF8FEF8EBD2A
:101C60000DB407FEFDCF8FEF8EBD0DB407FEFDCF87
:101C70008FEF8EBD0DB407FEFDCF8EB51A968C93F7
:101C80001A978F71853011F481E0089581E11596DE
:101C90008C931597CD010E940F0E80E00895FF925E
:101CA0000F931F93CF93DF93EC010E9445318B017B
:101CB000FF24FA9409C00E944531601B710B6D52DC
:101CC000714010F08FE00DC0FEBC0DB407FEFDCFDB
:101CD0008EB58A878F3F79F38E3F11F481E006C07D
:101CE0008DE08D83CE010E940F0E80E0DF91CF91B9
:101CF0001F910F91FF900895CF93DF93EC018E8198
:101D00008823D1F08FEF8EBD2F8138854FEF04C02F
:101D10000DB407FEFDCF4EBD2F5F3F4FC9010197A8
:101D200081509240A8F338872F830DB407FEFDCF72
:101D3000CE010E940F0E1E82DF91CF910895DF9297
:101D4000EF92FF920F931F93CF93DF93EC01D62E68
:101D500079018A010E947C0ECE010E94090ECE01FB
:101D60006CE271E00E94E70D8D2D80648EBD0DB494
:101D700007FEFDCF28E130E0D801C701022E04C0E4
:101D8000B695A795979587950A94D2F78EBD0DB411
:101D900007FEFDCF285030408FEF283F380761F70E
:101DA000DD2011F485E906C088E0D81611F487E833
:101DB00001C08FEF8EBD0DB407FEFDCF90E02FEF79
:101DC0002EBD0DB407FEFDCF8EB587FF02C091502A
:101DD000B9F78A87DF91CF911F910F91FF90EF9014
:101DE000DF900895CF92DF92EF92FF920F931F93AF
:101DF000CF93DF93EC017A018B0169014115510505
:101E00006105710511F482E137C08B85833039F0AB
:101E100029E0EE0CFF1C001F111F2A95D1F7CE01FF
:101E200068E1A80197010E949F0E882311F084E0C9
:101E300023C0CE016EEFA6010E94150E8823E9F0A3
:101E4000CE0168E572E00E94E70D882311F485E178
:101E500013C0CE016DE020E030E040E050E00E9491
:101E60009F0E882341F48FEF8EBD0DB407FEFDCF8A
:101E70008EB5882379F084E18D83CE010E940F0E08
:101E800080E0DF91CF911F910F91FF90EF90DF9055
:101E9000CF900895CE010E940F0E81E0F2CF8F9275
:101EA0009F92AF92BF92CF92DF92EF92FF920F93E9
:101EB0001F93CF93DF93EC015A016B014901011588
:101EC000110509F47BC0C801820F931F8150924015
:101ED00008F06FC08E81882371F088819981AA8172
:101EE000BB81481759076A077B0729F48F819885BA
:101EF0008816990618F5A882B982CA82DB828B857A
:101F0000833039F069E0AA0CBB1CCC1CDD1C6A953F
:101F1000D1F7CE0161E1A60195010E949F0E8823B1
:101F200019F083E08D8345C0CE010E944F0E8823B7
:101F300009F43FC018861F8281E08E838FEF8EBD2B
:101F40008F8198852FEF05C00DB407FEFDCF2EBD04
:101F5000019688159905C0F398878F83D80111974A
:101F600020E030E09FEF0BC00DB407FEFDCF8EB533
:101F7000F701E20FF31F80839EBD2F5F3F4F2A17AB
:101F80003B0790F30DB407FEFDCF8EB5AE0DBF1D20
:101F90008C932F813885200F311F38872F838985B7
:101FA000882319F02050324048F0CE010E947C0E68
:101FB00005C0CE010E940F0E80E001C081E0DF91DC
:101FC000CF911F910F91FF90EF90DF90CF90BF9036
:101FD000AF909F908F900895EF92FF920F931F9371
:101FE000790120E030E000E012E00E944F0F1F91E5
:101FF0000F91FF90EF900895BF92CF92DF92EF92F2
:10200000FF920F931F93CF93DF93EC01B62E1B86A5
:1020100019861E821D824C830E9445316B018C8182
:1020200061E00E945C32CE010E940F0E8CE060E005
:102030000E945C328BE061E00E945C328DE061E0E6
:102040000E945C328AE061E00E945C328AE061E0DA
:102050000E94C83283E58CBD8DB58E7F8DBD80E03A
:102060009FEF9EBD0DB407FEFDCF8F5F8A30C9F78D
:10207000CE010E94090E09C00E9445316C197D09EC
:10208000615D774010F081E05EC0CE0160E020E04D
:1020900030E040E050E00E949F0E182F8A87813088
:1020A00059F7CE0168E02AEA31E040E050E00E94B2
:1020B0009F0E82FF02C01B8711C080E02FEF2EBD54
:1020C0000DB407FEFDCF9EB58F5F8430C1F79A87B0
:1020D0009A3A11F082E037C082E08B878B8582309C
:1020E00021F0EE24FF2487010FC0E12CF12C012DFB
:1020F000F0E41F2F09C00E9445316C197D09615D14
:10210000774010F088E01FC0CE0167E320E030E0A8
:1021100040E050E00E949F0ECE0169E2A8019701C5
:102120000E949F0E8A87882331F78B85823031F594
:10213000CE016AE320E030E040E050E00E949F0ED4
:10214000882339F086E08D83CE010E940F0E80E057
:102150001CC08FEF8EBD0DB407FEFDCF8EB5807C09
:10216000803C11F483E08B8780E09FEF9EBD0DB42F
:1021700007FEFDCF2EB58F5F8330C1F7CE010E94E1
:102180000F0ECE016B2D0E94C20DDF91CF911F91DA
:102190000F91FF90EF90DF90CF90BF900895CF9375
:1021A000DF93EC01DB0180E090E020E2FD01E80F2D
:1021B000F91F208301968B309105C1F757E040E06D
:1021C00021C02E3219F086E891E007C05A3019F18B
:1021D0005AE048E017C03217F1F0FC010196349143
:1021E0003323C9F75417B8F02132A8F02F3798F4E9
:1021F000822F81568A3108F42052FD01E40FF11D2F
:1022000020834F5F29912223E1F690E08C91803268
:1022100019F091E001C090E0892FDF91CF910895EE
:102220006F927F928F929F92AF92BF92CF92DF92E6
:10223000EF92FF920F931F93CF93DF93EC017A01FC
:102240008B012D81222309F480C08B899C89AD8963
:10225000BE8984179507A607B70708F476C085C01E
:10226000E114F1040105110549F41E821F8218864C
:1022700019861A861B861C861D8665C02A853B85A5
:102280004C855D85EB8DFC8D858590E00996215010
:1022900030404040504039014A01082E04C0969415
:1022A0008794779467940A94D2F72F5F3F4F4F4FEC
:1022B0005F4F0894E108F10801091109570168010D
:1022C00004C0D694C794B794A7948A95D2F708947B
:1022D000E11CF11C011D111DA614B704C804D9048A
:1022E00028F0211531054105510549F48F89988D54
:1022F000A98DBA8D8E839F83A887B98716C0A6182B
:10230000B708C808D90811C04E815F8168857985F2
:102310008B8D9C8D94010E94EB1A0894A108B10842
:10232000C108D108882331F410C086E0882E912C92
:102330008C0E9D1EA114B104C104D10429F7EA86B4
:10234000FB860C871D8781E001C080E0DF91CF9183
:102350001F910F91FF90EF90DF90CF90BF90AF90C3
:102360009F908F907F906F900895223009F078CFE2
:10237000E6CFCF93DF93EC01462F6E857F8588896A
:1023800099890E94CF18882319F420E030E00AC010
:102390008A89282F30E095E0220F331F9A95E1F7C4
:1023A00026523D4FC901DF91CF9108950F931F939E
:1023B000CF93DF938C01FC0185818823D9F184813F
:1023C00087FF35C0C80161E00E94B911EC01009798
:1023D00089F1F8018581823040F483899489A58947
:1023E000B6898C8F9D8FAE8FBF8FF8018789908DB6
:1023F0009B8F8A8F8789908DA18DB28DCD01AA2761
:10240000BB279D8B8C8BE091D802F091D90230973D
:1024100051F0BE016A5E7F4FCE0148960995888DC6
:10242000998D9B8B8A8BF80184818F7784830E949E
:10243000701801C080E0DF91CF911F910F91089536
:10244000CF93DF93EC010E94D611882311F01D82F7
:1024500081E0DF91CF9108956F927F928F929F924A
:10246000AF92BF92CF92DF92EF92FF920F931F93A2
:10247000DF93CF9300D000D0CDB7DEB77C015A01F7
:102480006B01DC0115968C911597813009F08FC096
:1024900014968C9181FF8BC09EC00097A105B10559
:1024A00011F481E085C0F70162847384848495848B
:1024B000C701B601A5010E941011882309F477C055
:1024C000D7015B968D919C915C97A114B104C104D6
:1024D000D10489F457964D915D916D917C915A97F5
:1024E0000E945E1B882309F462C0F701178A108ED0
:1024F000118E128E3DC0D70116964D915D916D9152
:102500007C9119979E012F5F3F4F0E94EB1A882301
:1025100009F44DC0D7015B96ED91FC915C97498120
:102520005A816B817C818789803129F088EF9FEF08
:10253000AFEFBFE004C088EF9FEFA0E0B0E0481726
:1025400059076A077B07A0F4CF010E945E1B88230E
:1025500071F1F7014681578160857185838D948D76
:102560000FEF1FEF2FEF3FE00E944F1A8823F9F083
:10257000D7015396AD92BD92CD92DC9256971496A8
:102580008C911497806814968C93C7010E94D61181
:10259000882369F0B601A5016A147B048C049D04AC
:1025A00010F4B401A301C7010E94101101C080E022
:1025B0000F900F900F900F90CF91DF911F910F917F
:1025C000FF90EF90DF90CF90BF90AF909F908F9053
:1025D0007F906F900895F70183899489A589B689C2
:1025E00084179507A607B70708F057CFE0CF2F92BB
:1025F0003F924F925F926F927F928F929F92AF9293
:10260000BF92CF92DF92EF92FF920F931F93CF93DF
:10261000DF93EC012A018D81882309F4C6C08C81E7
:1026200080FFC3C0D8C025014E185F084B0176E07B
:10263000272E312C2C0E3D1E3201B1C02A853B8540
:102640004C855D856FEFA62E61E0B62EA222B322E7
:102650008D8179018A0199E016950795F794E794A1
:102660009A95D1F7EB8DFC8D823049F4428D538DD4
:10267000648D758D4E0D5F1D601F711F3FC0D4802E
:10268000DA94DE20A114B104D9F4DD20C9F42115B7
:1026900031054105510549F48F89988DA98DBA8D71
:1026A0008E839F83A887B9870BC04E815F81688521
:1026B0007985CF0191010E94EB1A882309F475C036
:1026C000EB8DFC8D4E815F8168857985425050404D
:1026D00060407040058404C0440F551F661F771F7B
:1026E0000A94D2F786859785A089B189480F591F2A
:1026F0006A1F7B1F4D0D511D611D711D80E092E011
:102700008A199B0963018615970508F46C018C8171
:1027100086FD06C080E0C81682E0D80609F073C0C6
:102720008091150190911601A0911701B0911801A7
:10273000481759076A077B0709F465C08091DA04D6
:102740009091DB049501860174010E944F0F88234C
:1027500061F18C0C9D1C12C0950126523D4FA901C0
:102760004C0D5D1DF901D40102C081918D93E417D8
:10277000F507D9F7E21BF30B8E0E9F1E960140E082
:1027800050E08A859B85AC85BD85820F931FA41F71
:10279000B51F8A879B87AC87BD876C187D0861143D
:1027A000710409F04BCFA20102C04FEF5FEFCA01E5
:1027B000DF91CF911F910F91FF90EF90DF90CF901D
:1027C000BF90AF909F908F907F906F905F904F9051
:1027D0003F902F900895AB88BC88CD88DE88EA842E
:1027E000FB840C851D859A0140E050E0D601C501AF
:1027F0008E199F09A00BB10B82179307A407B50789
:1028000008F411CF13CFCB01BA0140E00E94CF18DA
:10281000882309F0A1CFC9CFCF92DF92EF92FF9228
:102820000F931F93DF93CF930F92CDB7DEB76C0159
:10283000FC018581823070F0E284F3840485158583
:10284000C601BE016F5F7F4F41E050E00E94F7126A
:10285000019769F020E030E0C9010F90CF91DF913E
:102860001F910F91FF90EF90DF90CF900895F601A8
:1028700082859385A485B5854F96A11DB11D82875C
:102880009387A487B587F5E016950795F794E794A5
:10289000FA95D1F78E2D8F70282F30E0E5E0220FCA
:1028A000331FEA95E1F726523D4FD6CF0F931F9382
:1028B000CF93DF93EC018B018D81882309F041C018
:1028C000FB0187898031B1F482E08D831F8A188EE5
:1028D000198E1A8E808D918DA0E0B0E045E0880FB2
:1028E000991FAA1FBB1F4A95D1F78B8B9C8BAD8B71
:1028F000BE8B15C0803229F583E08D83FB01428DAC
:10290000538D648D758D4F8B588F698F7A8F9E0193
:102910002D5E3F4FC8010E94B71B882391F01C8F8A
:102920000B8F81E08C831E821F82188619861A867F
:102930001B861C861D861E861F86188A198A1A8A7F
:1029400001C080E0DF91CF911F910F9108951F93F7
:10295000CF93DF93EC01142FE62FF0E075E0EE0F3C
:10296000FF1F7A95E1F7E652FD4F8385817121F0D3
:10297000842F827409F054C06A8B80911501909164
:102980001601A0911701B09118018E879F87A88B1F
:10299000B98B84899589A0E0B0E0BC015527442714
:1029A000828D938DA0E0B0E0482B592B6A2B7B2BB6
:1029B0004F8B588F698F7A8F838590E088719070E4
:1029C000009751F4848D958DA68DB78D8B8B9C8B44
:1029D000AD8BBE8B81E00CC0409711F59E012D5E42
:1029E0003F4F8B8D9C8D0E94B71B8823C9F084E0DC
:1029F0008D83812F8F708C831E821F82188619868B
:102A00001A861B861C861D8616FD02C081E009C041
:102A1000CE0140E050E060E070E00E942C1201C066
:102A200080E0DF91CF911F910895CF93DF93EC0168
:102A30009C012A5F3F4F8B8D9C8D41E050E060E010
:102A400070E00E94261C8823A1F08F89988DA98DA3
:102A5000BA8D0097A105B10559F48E819F81A88593
:102A6000B9858F8B988FA98FBA8F8C8180688C8362
:102A700081E0DF91CF9108952F923F924F925F9224
:102A80007F928F929F92AF92BF92CF92DF92EF92FE
:102A9000FF920F931F93DF93CF9300D000D000D00D
:102AA000CDB7DEB76C01162F072F5E834D83DC0197
:102AB00015968C911597813009F070C114968C9100
:102AC00081FF6CC18EC1F60143895489658976897D
:102AD00082859385A485B58584179507A607B707D2
:102AE00031F0C6010E941011882309F457C1812FCB
:102AF000902F9C0129012D803E8017C1D6015B9645
:102B0000ED91FC915C97DA01C90119E0B695A795A2
:102B1000979587951A95D1F774807A9478227FEFEC
:102B2000872E71E0972E82229322772009F04EC0E3
:102B30008114910409F04AC0D60116964D915D9119
:102B40006D917C911997411551056105710581F4CD
:102B500057968D919D910D90BC91A02D0097A10548
:102B6000B10549F1F60186839783A087B1872EC00E
:102B7000CF019E012F5F3F4F0E94EB1A882309F47B
:102B800014C129813A814B815C81D6015B96ED911C
:102B9000FC915C978789803129F088EF9FEFAFEF38
:102BA000BFE004C088EF9FEFA0E0B0E0281739072E
:102BB0004A075B0730F0C6010E941515882331F4DF
:102BC000EDC0F601268337834087518780E092E08D
:102BD0008819990951018215930508F45C01D60101
:102BE0005B96ED91FC915C971696ED90FD900D91A2
:102BF0001C9119978EEF9FEFAFEFBFEFE80EF91E14
:102C00000A1F1B1F058404C0EE0CFF1C001F111FB0
:102C10000A94D2F786859785A089B189E80EF91EB6
:102C20000A1F1B1FE70CF11C011D111D90E0A916C6
:102C300092E0B90651F58091150190911601A0918D
:102C40001701B09118018E159F05A007B10761F417
:102C50008FEF9FEFAFEFBFEF8093150190931601B9
:102C6000A0931701B09318018091DA049091DB04CE
:102C7000B801A70192010E94F20E882309F48EC0C8
:102C8000A0E0B2E04A0E5B1E3EC08114910409F53B
:102C9000F601228533854485558583899489A589E4
:102CA000B689281739074A075B0798F00E94701801
:102CB000882309F473C0E0921501F0921601009385
:102CC0001701109318018091DC0481608093DC046B
:102CD00008C0C801B70141E00E94CF18882309F459
:102CE0005DC0940126523D4FA9014A0D5B1DD201E2
:102CF000F90102C08D918193E417F507D9F7E21B22
:102D0000F30B4E0E5F1E2A183B08950140E050E081
:102D1000F60182859385A485B585820F931FA41F34
:102D2000B51F82879387A487B587D6011A962D9100
:102D30003D914D915C911D972114310409F0DECE37
:102D400053968D919D910D90BC91A02D8217930764
:102D5000A407B50748F4F601238B348B458B568BBB
:102D600084818068848311C08091D8029091D902B7
:102D7000892B59F08D819E81892B39F0D6011496CB
:102D80008C911497806814968C93F601848183FF4C
:102D90000EC0C6010E94D611882349F481E090E05C
:102DA000D60113969C938E9312971E821D828D815D
:102DB0009E8126960FB6F894DEBF0FBECDBFCF9191
:102DC000DF911F910F91FF90EF90DF90CF90BF9018
:102DD000AF909F908F907F905F904F903F902F90FB
:102DE000089582FD70CE83CEDF93CF930F92CDB73F
:102DF000DEB76983BE016F5F7F4F41E050E00E9404
:102E00003C150F90CF91DF910895DF92EF92FF92E2
:102E10000F931F93CF93DF93EC010E941515882326
:102E200009F44EC0EB8DFC8DEE80FF80088519857E
:102E30008EEF9FEFAFEFBFEFE80EF91E0A1F1B1FCB
:102E4000058404C0EE0CFF1C001F111F0A94D2F76A
:102E500086859785A089B189E80EF91E0A1F1B1F78
:102E6000D4800894E108F108010911090BC0C801D8
:102E7000B7016D0D711D811D911D0E94AB18882336
:102E8000F9F0DA94DD2099F7EB8DFC8D20E032E04B
:102E900040E050E0058404C0220F331F441F551F3B
:102EA0000A94D2F78B899C89AD89BE89820F931FC2
:102EB000A41FB51F8B8B9C8BAD8BBE8B81E001C09B
:102EC00080E0DF91CF911F910F91FF90EF90DF9005
:102ED00008956F927F928F929F92AF92BF92CF92FE
:102EE000DF92EF92FF920F931F93DF93CF93CDB7B3
:102EF000DEB72B970FB6F894DEBF0FBECDBF5C01D7
:102F00006B01822EDC0115968C91882309F0D2C0CA
:102F1000CA018E010F5F1F4FB8010E94CF10882396
:102F200009F4C8C0F601838D948DD5015C969C93FD
:102F30008E935B971682178210861186D6011A9699
:102F40001D921D921D921C921D979924380141C01B
:102F5000C6010E940C14FC01009709F4ABC085E087
:102F600016950795F794E7948A95D1F71E2D1F7053
:102F70008081882311F0853ED1F4992091F4D50108
:102F800052961C9352972091150130911601409151
:102F90001701509118011E962D933D934D935C930C
:102FA00051978081882399F49924939421C0C30177
:102FB000BF014BE050E00E94DF37009751F4882DAD
:102FC0008073803309F476C0C501612F6FC09924E6
:102FD0009394F601E284F3840485158583899489AA
:102FE000A589B689E816F9060A071B0708F4B0CFC9
:102FF000882D8271823109F05DC0992041F0C501B0
:1030000061E00E94B9118C01009789F453C0D60188
:1030100015968C91823009F44DC0C6010E940517A7
:10302000882309F447C0F501128A0AED12E080E214
:10303000D8011D928A95E9F7D801FE0131968BE0FF
:1030400001900D928150E1F7E091D802F091D90200
:10305000309739F0B801625F7F4FC80140960995FB
:1030600009C081E298E2F801918B808B80E098E0C2
:1030700097878687D80150968D919C91519753964A
:103080009C938E93529759969C938E9358971E9625
:103090008D919C911F9757969C938E9356970E9463
:1030A0007018882339F0C501F5016289482D0E9406
:1030B000A71401C080E02B960FB6F894DEBF0FBEB8
:1030C000CDBFCF91DF911F910F91FF90EF90DF90D7
:1030D000CF90BF90AF909F908F907F906F9008950A
:1030E0008091DC04882399F14091150150911601DB
:1030F00060911701709118018091DA049091DB04BE
:103100002AED32E00E94F20E882319F14091DD048D
:103110005091DE046091DF047091E0044115510587
:103120006105710591F08091DA049091DB042AED3C
:1031300032E00E94F20E882361F01092DD041092BA
:10314000DE041092DF041092E0041092DC0481E0AF
:10315000089580E00895EF92FF920F931F937B01F3
:103160008C010E9470188823A9F0EAEDF2E0119218
:1031700084E0EA3DF807D9F7E0921501F0921601D4
:1031800000931701109318018091DC0481608093F3
:10319000DC0481E01F910F91FF90EF900895DF9282
:1031A000EF92FF920F931F937B018C01D42E80919D
:1031B000150190911601A0911701B09118018E157B
:1031C0009F05A007B107C1F00E9470188823D9F0AD
:1031D0008091DA049091DB04B801A7012AED32E076
:1031E0000E94EC0F882379F0E0921501F09216010D
:1031F00000931701109318018091DC048D298093AE
:10320000DC0481E001C080E01F910F91FF90EF90FE
:10321000DF9008958F929F92AF92BF92CF92DF92EC
:10322000EF92FF920F931F93CF93DF936C01142FB4
:103230007093DB046093DA04442321F488249924F6
:10324000540140C0453008F01CC160E070E080E0EF
:1032500090E040E00E94CF18882309F412C1C12FEA
:10326000D0E02197FE0174E0EE0FFF1F7A95E1F7A1
:10327000E652FD4FE254FE4F8081EE5BF14090E05C
:103280008F779070892B09F0FCC0E653FE4F808148
:103290009181A281B38184369105A105B10508F41D
:1032A000F0C064E0CC0FDD1F6A95E1F7C056DB4F3C
:1032B00088809980AA80BB8081149104A104B10404
:1032C00009F4DFC0C501B40140E00E94CF18882393
:1032D00009F4D7C08091E5029091E60280509240B7
:1032E00009F0CFC02091EA02222309F4CAC08091DC
:1032F000E8029091E902892B09F4C3C08091E702AA
:10330000882309F4BEC0F601228B8091E7028483F2
:10331000158661E070E007C04F5FF60145874150B8
:10332000483008F0AEC0F6014585848190E09B01ED
:10333000042E02C0220F331F0A94E2F7821793076C
:1033400059F72091F0023091F1022115310519F061
:1033500040E050E008C02091FE023091FF02409111
:10336000000350910103F60125833683478350877C
:10337000E090E802F090E90200E010E0E80CF91CAF
:103380000A1D1B1DE38AF48A058B168B8091EB02C4
:103390009091EC02918F808F6091EA0270E080E062
:1033A00090E00E9456376E0D7F1D801F911FF60121
:1033B000628F738F848F958F2091EB023091EC0296
:1033C00055E0220F331F5A95E1F721503E4F232F2E
:1033D0003327269540E050E0260F371F481F591F1E
:1033E00026873787408B518B8091ED029091EE02BA
:1033F000009719F0A0E0B0E008C08091FA02909127
:10340000FB02A091FC02B091FD0285017401E21A59
:10341000F30A040B150BA8019701280F391F4A1F47
:103420005B1FF601058404C056954795379527958F
:103430000A94D2F72187328743875487253FFFE0DC
:103440003F07F0E04F07F0E05F0710F48CE006C0A4
:10345000255F3F4F4040504028F480E1F601878BC4
:1034600081E010C08091060390910703A0910803AA
:10347000B0910903F601828F938FA48FB58F80E2FC
:10348000EECF80E0DF91CF911F910F91FF90EF90F1
:10349000DF90CF90BF90AF909F908F9008954F9204
:1034A0005F926F927F928F929F92AF92BF92CF92D4
:1034B000DF92EF92FF920F931F93CF93DF93EC0174
:1034C0006A017B012801390142305105610571050E
:1034D00008F46FC089859A85AB85BC850196A11DCE
:1034E000B11D84179507A607B70708F462C02B899A
:1034F0003C894D895E898F89803129F499278F2DE8
:103500007E2D6D2D09C0C701B60117E096958795F0
:10351000779567951A95D1F74B015C01820E931E42
:10352000A41EB51E8091150190911601A09117015E
:10353000B091180188169906AA06BB0639F0C50194
:10354000B40140E00E94CF18882399F18F8980311F
:1035500049F4F601F070EE0FFF1FE652FD4F518265
:1035600040820DC0F601EF77F070EE0FFF1FEE0FF7
:10357000FF1FE652FD4F408251826282738280912A
:10358000DC0481608093DC048A89823080F08D8144
:103590009E81AF81B885880E991EAA1EBB1E80929F
:1035A000DD049092DE04A092DF04B092E00481E09A
:1035B00001C080E0DF91CF911F910F91FF90EF90BC
:1035C000DF90CF90BF90AF909F908F907F906F9043
:1035D0005F904F900895CF92DF92EF92FF920F93FA
:1035E0001F93CF93DF93EC017A018B0169018985E9
:1035F0009A85AB85BC850196A11DB11D84179507E1
:10360000A607B70708F450C02B893C894D895E890D
:103610008F89803129F49927812F702F6F2D09C050
:10362000C801B701E7E09695879577956795EA9584
:10363000D1F7260F371F481F591F80911501909110
:103640001601A0911701B0911801281739074A07F0
:103650005B0739F0CA01B90140E00E94CF18882306
:1036600019F18F89803159F4F701F070EE0FFF1FC7
:10367000E652FD4F80819181A0E0B0E00EC0F701DD
:10368000EF77F070EE0FFF1FEE0FFF1FE652FD4FBA
:1036900080819181A281B381BF70F6018083918383
:1036A000A283B38381E001C080E0DF91CF911F91BD
:1036B0000F91FF90EF90DF90CF900895AF92BF925F
:1036C000CF92DF92EF92FF920F931F93DF93CF93EE
:1036D00000D000D0CDB7DEB76C017A018B0182E05B
:1036E00090E0A0E0B0E0F60180839183A283B383F1
:1036F0005E010894A11CB11CC601B801A701950187
:103700000E94EB1A882319F1C601B801A70100E055
:1037100010E020E030E00E944F1A8823C1F0E980D9
:10372000FA800B811C81F6018789803129F088EFAE
:103730009FEFAFEFBFE004C088EF9FEFA0E0B0E0E5
:10374000E816F9060A071B07B8F281E001C080E01D
:103750000F900F900F900F90CF91DF911F910F91CD
:10376000FF90EF90DF90CF90BF90AF9008954F9271
:103770005F926F927F928F929F92AF92BF92CF9201
:10378000DF92EF92FF920F931F93DF93CF9300D0BE
:1037900000D0CDB7DEB76C0149835A836B837C833D
:1037A0003901EE24FF2487012E010894411C511C8D
:1037B000812CA2E09A2EA12CB12C49815A816B81D7
:1037C0007C81C60192010E94EB1A882351F1D50138
:1037D000C401F601058404C0880F991FAA1FBB1FEE
:1037E0000A94D2F7E80EF91E0A1F1B1F29813A819D
:1037F0004B815C818789803129F088EF9FEFAFEFA3
:10380000BFE004C088EF9FEFA0E0B0E028173907C1
:103810004A075B0790F2F301E082F182028313838F
:1038200081E00F900F900F900F90CF91DF911F913B
:103830000F91FF90EF90DF90CF90BF90AF909F904F
:103840008F907F906F905F904F9008952F923F924E
:103850004F925F926F927F928F929F92AF92BF92A0
:10386000CF92DF92EF92FF920F931F93DF93CF934C
:10387000CDB7DEB72F970FB6F894DEBF0FBECDBF22
:103880001C014A875B876C877D873F872E87D9011C
:103890000D911D912D913C910115110521053105C9
:1038A00049F0480159010894811C911CA11CB11CCC
:1038B000198610C0FC0180809180A280B380198697
:1038C0008A859B85AC85BD850197A105B10511F45D
:1038D00091E09987D10119968D919D910D90BC91A0
:1038E000A02D0196A11DB11D8D839E83AF83B88746
:1038F000750164014424552432018E010F5F1F4F6E
:10390000F10181859285A385B485481659066A061A
:103910007B0608F090C08D819E81AF81B8858C15A3
:103920009D05AE05BF0550F482E0882E912CA12C98
:10393000B12CB2E0CB2ED12CE12CF12CC101B7017E
:10394000A60198010E94EB1A882309F474C08981AA
:103950009A81AB81BC81A70196012F5F3F4F4F4FEA
:103960005F4F0097A105B10519F049015A010DC03B
:10397000281939094A095B098A859B85AC85BD856B
:10398000281739074A075B0759F00894411C511C56
:10399000611C711C0894C11CD11CE11CF11CB0CF2E
:1039A000C101A601B7010FEF1FEF2FEF3FE00E940B
:1039B0004F1A882399F43FC0260137010894410823
:1039C000510861087108C101B301A2019701860184
:1039D0000E944F1A882379F1730162018C149D04AF
:1039E000AE04BF0448F3AE85BF854D915D916D91E6
:1039F0007C91411551056105710539F0C1019501B1
:103A000084010E944F1A8823B1F0EE85FF858082E1
:103A10009182A282B382F985FF2359F00894811C18
:103A2000911CA11CB11CD1018D929D92AD92BC92B2
:103A3000139781E001C080E02F960FB6F894DEBFA7
:103A40000FBECDBFCF91DF911F910F91FF90EF90EF
:103A5000DF90CF90BF90AF909F908F907F906F90AE
:103A60005F904F903F902F900895882319F48CB564
:103A7000806202C08CB58F7D8CBD08959CB5937F0C
:103A8000982B9CBD08952CB5382F33702C7F322B8A
:103A90003CBD2DB590E0959587959595879581705E
:103AA0002E7F822B8DBD08958AE061E00E94C8328E
:103AB0008AE061E00E945C328CB580618CBD8CB57F
:103AC00080648CBD8DE061E00E945C328BE061E03F
:103AD0000E945C320895FC0181E08083089585E0B6
:103AE00070E00E94FC3108956F927F928F929F92B6
:103AF000AF92BF92CF92DF92EF92FF920F931F93FC
:103B0000CF93DF93EC0189819A818C0124E0000F2F
:103B1000111F2A95E1F7081B190B85E10E94DA3184
:103B2000BC01600F711F84E0769567958A95E1F777
:103B30007A8369838881882381F12E813F8162178E
:103B4000730710F4B90106C0888599858617970711
:103B500008F4BC0100D000D080E090E040E050E0EC
:103B6000E884F98400E010E0AD80BB24CC24DD249F
:103B70006C80772488249924EDB7FEB76182728225
:103B8000838294820E94F0356B830F900F900F9088
:103B90000F9085E070E00E94FC31DF91CF911F9182
:103BA0000F91FF90EF90DF90CF90BF90AF909F90DC
:103BB0008F907F906F900895FC018CE39FE093833A
:103BC000828384E0818381E084870895CF93DF93AB
:103BD000EC018C8590E08F719070892B69F584E100
:103BE0000E94DA31AA2797FDA095BA2FBC01CD011A
:103BF0000E94673626EE3FE34EEC50E40E94F33617
:103C00000E9439369B01AC017B836A836115710583
:103C100089F084E08983B901FE0120E084819581E7
:103C20006817790710F429830AC02F5F3296243071
:103C3000A9F702C08FEF89838C858F5F8C87DF9116
:103C4000CF910895FC0188E0808389E0818387E03B
:103C5000828386E0838384E0848382E0858381E1BC
:103C60008683089520E0FC01E60FF11D87818130F5
:103C700009F421E0822F089520E0FC01E60FF11DF8
:103C800087818F3F09F421E0822F0895E62FF0E02D
:103C9000423040F420E0E80FF91F878181508E3FC9
:103CA00088F40FC0E80FF91F87818F3F11F420E0DF
:103CB00009C020E090E0642F70E00E947537019702
:103CC00009F421E0822F0895FC01E60FF11D8781A0
:103CD0008F3F09F480E008950F931F93CF93DF93F4
:103CE000EC0110E00FEF888162E00E945C32888175
:103CF0000E94FB322F81892B19F42F5F2F8307C07D
:103D0000222349F02F3F11F41F8201C00F838881C5
:103D100060E00E945C321F5F2196173021F7DF912F
:103D2000CF911F910F910895FC01742F643508F015
:103D30005DC047FD5BC040330CF058C0878D8230BA
:103D400019F5842F859585958595992787FD9095FB
:103D5000462F552747FD509524E530E0829FF0011E
:103D6000839FF00D929FF00D1124E40FF51FEF518A
:103D7000FB4F808190E0272F277002C09595879593
:103D80002A95E2F780958170972F95959595959551
:103D9000462F552747FD5095272F27708823A1F4DC
:103DA000E4E59E02F0011124E40FF51FEF51FB4FF3
:103DB00081E090E002C0880F991F2A95E2F7809574
:103DC0002081282320830895E4E59E02F001112438
:103DD000E40FF51FEF51FB4F81E090E002C0880F28
:103DE000991F2A95E2F72081282B20830895FC0152
:103DF000678F60A30895FC01678F40A30895AF9279
:103E0000BF92CF92DF92EF92FF920F931F93CF93C7
:103E1000DF93EC01162FF42EE22EAA24402F552713
:103E200047FD50958F2D992787FD9095481B590B7D
:103E300057FF03C0509541955F4F2E2D332727FD27
:103E40003095812F992787FD9095281B390B37FFD7
:103E500003C0309521953F4F2417350744F4AA2419
:103E6000A3948F2DF12E182F802F0E2DE82EE11602
:103E700034F48E2DE12E182F802F0F2DF82EDE2CEE
:103E8000D11A202F332727FD30958F2D992787FDB5
:103E90009095281B390B37FF03C0309521953F4F74
:103EA000B22EF0161CF0CC24CA9402C0CC24C394C9
:103EB0008D2DD7FC8F5F082F059511C0AA2021F00A
:103EC000CE016F2D412F03C0CE01612F4F2D0E94D7
:103ED000941E0B1907FF02C0FC0C0D0D1F5FE116AD
:103EE0006CF7DF91CF911F910F91FF90EF90DF90D2
:103EF000CF90BF90AF9008950F93042F322F262FAD
:103F00002150230F0E94FF1E0F9108950F93362F0B
:103F1000042F0150020F232F0E94FF1E0F910895BE
:103F20009F92AF92BF92CF92DF92EF92FF920F9348
:103F30001F93CF93DF936C01B62E942EA02EC0E07A
:103F4000D0E0E62EFF24E7FCF094022F112707FDB6
:103F500010950E0D1F1D06C0C601492D2A2D0E9469
:103F6000861F21966B2D6C0FCE018E0D9F1D801725
:103F7000910794F3DF91CF911F910F91FF90EF90F4
:103F8000DF90CF90BF90AF909F9008952F923F9277
:103F90005F926F927F928F929F92AF92BF92CF92D9
:103FA000DF92EF92FF920F931F93DF93CF9300D096
:103FB00000D000D0CDB7DEB79E838D83C62ED42E21
:103FC000EE24E394E21A8EEF289F502C1124842EC5
:103FD0008A94962E9A94A42EA394B62EB394F22E7D
:103FE000662423E0722E10E0C801847090709A83DA
:103FF0008983F801E270F070FC83EB8398E0292E4E
:10400000312C202231220170107054C0E7FC04C012
:10401000FA94F2E05F0EE50C639489819A81892B12
:1040200071F04F2D4D0D8D819E816B2D0E94941E40
:104030006F2D6C0D8D819E814A2D0E94941EEB8107
:10404000FC81EF2B71F04D2D4F198D819E816B2DD1
:104050000E94941E6F2D6C0D8D819E81482D0E94B3
:10406000941E2114310471F06C2D6F198D819E8185
:104070004A2D0E94941E4F2D4D0D8D819E81692DDC
:104080000E94941E0115110571F06C2D6F198D8120
:104090009E81482D0E94941E4D2D4F198D819E8129
:1040A000692D0E94941EE70CF2E07F0E8A949A9488
:1040B000A394B3946F140CF4A9CF26960FB6F8947A
:1040C000DEBF0FBECDBFCF91DF911F910F91FF904B
:1040D000EF90DF90CF90BF90AF909F908F907F90A8
:1040E0006F905F903F902F9008954F925F926F92E4
:1040F0007F928F929F92AF92BF92CF92DF92EF9278
:10410000FF920F931F93CF93DF93EC01A62E742E93
:104110009E2DFF24F394F21A8EEF289F802C1124F9
:10412000B42EBA9453E0C52ECE0CE22EDD2443E02B
:10413000942E10E031E0432E512C40225122692E62
:1041400063940270107034C0F7FC04C0EA9482E0FB
:10415000880EF80CD3944114510489F06D2D6A0D2A
:10416000472D4E192E2D220F260DCE010E94861F9F
:104170006E2D6A0DCE014B2D2C2D0E94861F011530
:10418000110589F06A2D6D19472D4E192E2D220F1C
:10419000260DCE010E94861F6A2D6E19CE014B2D71
:1041A0002C2D0E94861FF90C82E0980EBA94C80E3E
:1041B000DE1454F2DF91CF911F910F91FF90EF9099
:1041C000DF90CF90BF90AF909F908F907F906F9037
:1041D0005F904F9008957F928F929F92AF92BF927F
:1041E000CF92DF92EF92FF920F931F936C01962E66
:1041F000A42EF22E7E2C760E1EEFE19E102D1124A1
:10420000812E820E672D282D0E947C1FB02EBA0CA5
:10421000BA94C601672D4B2D282D0E947C1FAE0C31
:10422000100FC601692D4A2D212F0E94861FF90CFF
:10423000FA94C6016F2D4A2D212F0E94861FC601B8
:10424000672D4A2D2E2D01E00E94C61FFE18C601C3
:104250006F2D4A2D2E2D02E00E94C61FBE18C601EA
:104260006F2D4B2D2E2D04E00E94C61FC601672D19
:104270004B2D2E2D08E00E94C61F1F910F91FF901D
:10428000EF90DF90CF90BF90AF909F908F907F90F6
:1042900008958F929F92AF92BF92CF92DF92EF924A
:1042A000FF920F931F936C01162FA42E922EF02EC7
:1042B000BE2C8E2C860E2EEFE29EE02C11242E2D8D
:1042C000290D682D0E94901FAB0CFA94FE0C115022
:1042D000190D1B19C601612F4A2D2B2D01E0EF2C62
:1042E0000E947520C601682D4A2D2B2D02E00E94E8
:1042F00075201F910F91FF90EF90DF90CF90BF90AE
:10430000AF909F908F9008953F924F925F926F92DF
:104310007F928F929F92AF92BF92CF92DF92EF9255
:10432000FF920F931F93CF93DF934C01362E442EB1
:10433000F901A490319654906F010894C11CD11CCE
:104340008A2D992787FD9095079668E070E00E9476
:104350008937E62EFF24E7FCF09400E0C0E0D0E0CF
:1043600060E8662E712C26C0E12FE595E595E59570
:10437000FF27E7FDF095EC0FFD1FEC0DFD1DE4910F
:104380002E2F30E0812F8770A30102C055954795ED
:104390008A95E2F724233523232B31F0612F630D17
:1043A000C4014B2D0E94941E1F5F1A15ECF20F5F83
:1043B000CE0DDF1D051524F410E0B02EB40CF5CFA2
:1043C000DF91CF911F910F91FF90EF90DF90CF90F1
:1043D000BF90AF909F908F907F906F905F904F9025
:1043E0003F900895DC01FB0184918F5F14968C93BC
:1043F0001497319684918F5F15968C93159731960B
:104400005E96FC93EE935D9708953F924F925F9274
:104410006F927F928F929F92AF92BF92CF92DF92D4
:10442000EF92FF920F931F93CF93DF93EC01862EB1
:10443000A42E422F102F3F8C23E526170CF4ABC07F
:104440003FE23A150CF4A7C0C02EDD248C8190E029
:1044500001979C01C29EC001C39E900DD29E900DFB
:104460001124262F332727FD3095820F931F18160E
:1044700019060CF090C08D8190E09C01C29EC00195
:10448000C39E900DD29E900D11242A2D332727FD17
:104490003095820F931F181619060CF07CC09924D2
:1044A000442E55246DC09C012150304042175307C3
:1044B00011F460E00EC0429EC001439E900D529EDA
:1044C000900D1124840F951FED8DFE8DE80FF91FBF
:1044D00064914C9DC0014D9D900D5C9D900D1124EB
:1044E000682C680EBB24792C780C3FC0E62EFF2484
:1044F00060FF19C0113039F44B2D4A0DCE01672DE4
:104500000E94941E2EC02C9DC0012D9D900D3C9D9F
:10451000900D11244A2D480FCE01662D212F012F19
:104520000E94901F1EC098A18F8D9817D1F09F8F69
:10453000113039F44B2D4A0DCE01672D0E94941E87
:104540000FC02C9DC0012D9D900D3C9D900D112400
:104550004A2D480FCE01662D212F012F0E94901F5A
:104560003F8EF594E7946E2DB3942B2D332727FDC2
:1045700030958D8190E0281739070CF4B7CF9394CC
:10458000492D552747FD50958C8190E048175907D4
:104590000CF489CF3F8EDF91CF911F910F91FF9047
:1045A000EF90DF90CF90BF90AF909F908F907F90D3
:1045B0006F905F904F903F9008950F93CF93DF934C
:1045C000EC01262F6A3049F48D819885899F802DD2
:1045D00011249A85980F9A8726C06D3029F1698534
:1045E0004A8508850E9405229C816885969F402DFA
:1045F00011248985480F49878F818823A9F0552781
:1046000047FD5095699F9001112484E590E0821B3D
:10461000930B8417950744F49D81699F902D112475
:104620008A85890F8A87198681E090E0DF91CF9192
:104630000F9108951F93CF93DF93EC01162FF894F9
:104640008E8560E00E94C8328F8518161CF460E0E9
:104650000E94C8321EBD0DB407FEFDCF8EB58F85FA
:1046600018161CF461E00E94C8327894DF91CF9153
:104670001F910895FF920F931F93CF93DF93EC0147
:10468000FF2400E010E06F2D6064CE010E941A2329
:10469000CE0160E80E941A238E8561E00E94C83234
:1046A0008F8518161CF460E00E94C832F801EF51A3
:1046B000FB4F90E080818EBD0DB407FEFDCF8EB51F
:1046C0009F5F31969435B1F78F8518161CF461E021
:1046D0000E94C832F3940C5A1F4F86E0F81699F6E0
:1046E000CE0160E40E941A23DF91CF911F910F91B8
:1046F000FF900895CF93DF93DC0188EF91E0E1EE26
:10470000F4E0EF019C01199221503040E1F7199635
:104710001C9219971A961C92DF91CF910895EF92EF
:104720000F93CF93DF93EC014D876C872E87E88A38
:104730000F8781E088878F8F18A28F83CE0168E171
:1047400073E00E94F2210E94541D81E00E94351DF9
:1047500085E00E94431D8CE00E943E1D8D8561E036
:104760000E945C328C8561E00E945C328E8561E043
:104770000E945C32888918161CF461E00E945C3249
:104780008F8518161CF461E00E945C328889181627
:104790006CF460E00E94C8326AE070E080E090E073
:1047A0000E947931888961E00E94C832EC852E2F01
:1047B000332727FD3095F901E753F74FE491F0E0F7
:1047C000EE0FFF1FEB54F74F859194919C8B8B8BD1
:1047D0002352374FF90184918A8FED852E2F33278D
:1047E00027FD3095F901E753F74FE491F0E0EE0F24
:1047F000FF1FEB54F74F859194919A8B898B23522D
:10480000374FF9018491898FEF852E2F332727FDAC
:104810003095F901E753F74FE491F0E0EE0FFF1FF9
:10482000EB54F74F859194919E8B8D8B2352374F8C
:10483000F90184918B8FEE852E2F332727FD30953C
:10484000F901E753F74FE491F0E0EE0FFF1FEB544F
:10485000F74F85919491988F8F8B2352374FF901A1
:1048600084918C8FCE0161E20E941A23CE0164E113
:104870000E941A238B8587FF02C08FE78B876B8589
:104880006068CE010E941A23CE0160E20E941A23C2
:10489000CE016CE00E941A23CE010E943A23DF91E0
:1048A000CF910F91EF900895CF93DF93DC01E0E873
:1048B000F7E785919491ED01C75ADF4FAD0141595A
:1048C0005F4F8150904C09F04EC0E6E9F7E7E49164
:1048D000E883E7E9F7E7E4911496EC931497E8E9A5
:1048E000F7E7E4911596EC931597E9E9F7E78591D9
:1048F000949117969C938E931697EBE9F7E7859121
:10490000949119969C938E931897EDE9F7E7E491AB
:104910009B96EC939B97EEE9F7E7E4919A96EC93DC
:104920009A97EFE9F7E7E491EA01E883E0EAF7E72D
:10493000859194915D969C938E935C97E2EAF7E75C
:10494000859194915F969C938E935E97E4EAF7E746
:104950008591949191969C938E939097E6EAF7E7D0
:104960008591949132C08CE3888314961C9214979D
:104970002FEF15962C93159780E293E017969C9352
:104980008E93169784ED93E019969C938E931897C7
:1049900081E09B968C939B979A968C939A97FA01B9
:1049A00020838CEA9DE05D969C938E935C978EEDC0
:1049B0009DE05F969C938E935E9784E79EE0919630
:1049C0009C938E9390978CE39FE093969C938E9309
:1049D0009297DF91CF910895EF92FF920F931F93DB
:1049E000CF93DF937C018C01025B1F4FC8010E94B3
:1049F0007A23C80161E477E00E94EE34C8010E9486
:104A00003A2383E00E94431D82E091E0EEEFFFE352
:104A1000099584E590E0E80EF91EF7011082C801BF
:104A20006CE177E00E943935C8010E943A23E70122
:104A3000CA54D040CE010E946C1ECE0164E00E9498
:104A4000321E882339F462E370E080E090E00E9437
:104A50007931F0CFDF91CF911F910F91FF90EF90BF
:104A600008950F931F93CF93DF93EC018C01025BAA
:104A70001F4FC80161E040E00E94FB1EFE01E95AA1
:104A8000FF4FCE5ADF4F85E59881891B808326969C
:104A90001882C855D040698D613009F43EC061303C
:104AA00028F0888D653008F051C04BC0CE01859646
:104AB0000E94802DCE0160E00E946F1DC8010E94FF
:104AC0007A23CA5ADF4F81E08883C655D040C80197
:104AD0006DE777E00E94EE346A8D7B8DC8014AE075
:104AE00050E00E94DC35C80169E677E00E94EE34B0
:104AF000C8010E943A2383B7817F846083BF83B754
:104B0000816083BF83B7816083BF889583B78E7FC1
:104B100083BF83B78E7F83BF1FC0C059DF4F88819B
:104B20009981AA81BB818F709070A070B070089736
:104B3000A105B10518F4C80167E00CC0C80168E719
:104B400009C0882349F06B5FC80104C0882321F0A5
:104B5000C8016FE20E941135DF91CF911F910F9133
:104B60000895AF92BF92CF92DF92EF92FF920F9390
:104B70001F93CF93DF93EC01CB57DF4F8881C5584C
:104B8000D040882309F44AC08C3010F010E002C0F5
:104B90001CE0181BCA5ADF4F81E08883C655D040FD
:104BA0006EE4C62ED12CCC0EDD1EC60160E00E9444
:104BB000F71E53E5A52EB12CAC0EBD1EF5010081EC
:104BC0004DE2F42E4F2D401B410F0D5FC60160E0FA
:104BD00024E533E0E32E0E944921C60161E00E94F2
:104BE000F71EF5010081F01AF10E0D5FC60160E0BD
:104BF0004F2D24E50E94EB20C95ADF4F84E08993B2
:104C0000F5018081181B115D1883AB96699179912C
:104C1000C6010E94EE34888181508883DF91CF9154
:104C20001F910F91FF90EF90DF90CF90BF90AF90CA
:104C30000895AF92BF92CF92DF92EF92FF920F93BF
:104C40001F93CF93DF93EC01EFE7AE2EB12CA80EAC
:104C5000B91EF501E080F180028113810E94453187
:104C6000E61AF70A080B190B7EE7C72ED12CCC0EDB
:104C7000DD1EF601808190E0A0E0B0E08E159F057A
:104C8000A007B10708F081C08E0106581F4FF80138
:104C900080819181A281B3810097A105B10509F4BA
:104CA00074C00E944531F6012081620F711D811D83
:104CB000911DF5016083718382839383FE01E05926
:104CC000FF4F80819181A281B3810196A11DB11D09
:104CD00080839183A283B383F801108211821282B0
:104CE00013820E945331CA58DF4F688379838A83C5
:104CF0009B83C657D040CE010E94741DCE010A96F8
:104D00000E946C1ECE0148960E94E61D81E032C0D2
:104D10008E010B5D1F4FC8010E94CE2DC8010E945D
:104D2000452EC8010E94282FCE010E94B125CE0138
:104D30000E9431258E01025B1F4FC8010E943A2359
:104D4000CC5ADF4F8881C455D040882319F4C8015C
:104D50000E947A230E945331C658DF4F68837983BB
:104D60008A839B83249728813981621B730B7A93F2
:104D70006A9380E0DF91CF911F910F91FF90EF90A8
:104D8000DF90CF90BF90AF900895C658DF4F8881D5
:104D90009981AA81BB81CA57D0400097A105B1056E
:104DA00041F7B6CF2F923F924F925F926F927F92D0
:104DB0008F929F92AF92BF92CF92DF92EF92FF922B
:104DC0000F931F93DF93CF93CDB7DEB768970FB6DE
:104DD000F894DEBF0FBECDBF5C017B876A874C872E
:104DE00024E530E0A20EB31ED5011C92ECEAFFEFE1
:104DF000AE0EBF1E842F90E0FB01E80FF91F319724
:104E000010825AE0452E512C4A0C5B1C45E2642E60
:104E1000712C6A0C7B1C3EE4C32ED12CCA0CDB1C0B
:104E2000F4E5FA8320E329831D821C8232E03B8370
:104E300023E5822E912C8A0C9B1C02E5202E312C1E
:104E40002A0C3B1CA501495A5F4F5E874D87B5016F
:104E5000685A7F4F788B6F87D501A059BF4FBA8BA7
:104E6000A98B9C8B8B8B01979E8B8D8BC5010E9490
:104E700019268823D9F3C20163E044E00E94461E4C
:104E8000882331F0BB81BF5FBB83C3010E94912F98
:104E9000C20161E044E00E94461E882331F0EB81AC
:104EA000E150EB83C3010E94912FC20162E044E014
:104EB0000E94461E882331F0FC81FF5FFC83C30102
:104EC0000E94912FC20160E044E00E94461E8823A8
:104ED00031F02C8121502C83C3010E94912F3C8101
:104EE000303111F41C8205C04C814F3F11F45FE05A
:104EF0005C836B81683011F41B8205C07B8177FF76
:104F000002C087E08B83AC81BB27A7FDB095B98732
:104F1000A887D401EC912B81332727FD30953F835F
:104F20002E83D1018C9190E08095909528853985CC
:104F3000AC01249FC001259F900D349F900D11243A
:104F4000895D992787FD90955A81252F332727FD65
:104F50003095820F931F62E070E00E9489376A8368
:104F600084E18E1BF0E0E095F0956E817F816E9F6D
:104F700090016F9F300D7E9F300D1124820F992775
:104F800087FD90957981272F332727FD3095820F54
:104F9000931F62E070E00E9489376983C20164E078
:104FA0000E94321E882399F18D81282F332727FDF7
:104FB0003095AD89BE892A173B07BCF48E819F814D
:104FC00014E0880F991F1A95E1F7BC818B0F09F443
:104FD0004DCF8A3009F44ACF8D3009F447CFEA85A6
:104FE000FB85E20FF31F80831182ED81EF5FED837C
:104FF000C3010E94852FFD818F2F992787FD9095F2
:105000002B893C892817390714F43C853D83C2015C
:1050100065E00E94321E8823A9F04D8141504D83E6
:10502000C3010E948B2F5D8157FF02C01D820AC001
:105030006D81E62FFF27E7FDF0958A859B85E80FB8
:10504000F91F1082C20166E00E94321E882309F413
:1050500042C0C3010E94852FC5010E9419268823E2
:10506000D9F3C6016DEA77E00E943935C6016A8539
:105070007B850E94ED35C6016CE977E00E943935E9
:10508000C20164E00E94321E8823E1F0C3010E9445
:10509000852F68960FB6F894DEBF0FBECDBFCF91B7
:1050A000DF911F910F91FF90EF90DF90CF90BF9015
:1050B000AF909F908F907F906F905F904F903F90B8
:1050C0002F900895C20165E00E94321E882321F2CC
:1050D000C3010E948B2FEE24FF2410E033C0D101C6
:1050E0008C9190E00196EF89F88D9C01E29FC001C0
:1050F000E39F900DF29F900D11246A81680FD401F7
:105100008C9190E00196FC01EE9EC001EF9E900D07
:10511000FE9E900D11244981480F2F89210FC60151
:1051200001E00E9405222F89388D2F5F3F4F388F75
:105130002F8B2031310599F60894E11CF11C105F8A
:10514000103819F0188E1F8ACACFD1018C91BAEF8E
:105150008B9F802D11248250EA818E0FAD85BE85F4
:105160008C93F40180818F5FF9818F0FAF85B889AF
:105170008C93C60166E977E00E94EE34F1018081EC
:10518000FAEF8F9F802D112482502A81820FAD85E6
:10519000BE858C93F401808190E00196880F991F61
:1051A000F9818F0FAF85B8898C93C60160E977E0EC
:1051B0000E94EE34F1018081FAEF8F9F802D11243F
:1051C00082502A81820FAD85BE858C93F4012081A7
:1051D00030E02F5F3F4FC901880F991F820F931F47
:1051E000F9818F0FAF85B8898C93C6016AE877E0A3
:1051F0000E94EE34C60160E00E94F71EF10180813A
:1052000090E0019628853985289FB001299F700D6F
:10521000389F700D112461503A81630FD4018C9135
:1052200090E00196EE81FF81E89FA001E99F500D7B
:10523000F89F500D11244250F9814F0FC60127E00D
:105240000E947C1FC60161E00E94F71ED1012C91D3
:10525000822F90E0F4010081019648855985489F8E
:105260007001499FF00C589FF00C11245EEFE50E81
:105270006A81E60E402F50E04F5F5F4FAE81BF81E5
:10528000A49FF001A59FF00DB49FF00D1124E350F1
:10529000B981EB0F2E5F029762E070E00E948937C0
:1052A000280F0B5FC6016E2D4E2FF3E0EF2E0E94EC
:1052B000EB20F40180814EE2481BC60160E024E54A
:1052C0000E947C1FC60160E00E94F71ED4010C9171
:1052D0004FE2401B0F5FC60160E024E50E94901F73
:1052E000ED85FE851082D4018C91B0E3B81BEF856B
:1052F000F889B083C60161E00E94F71EC6016A8585
:105300007B850E94ED35E989FA8980819181A281AE
:10531000B38187709070A070B0700497A105B1053B
:1053200008F0A4CDFD812F2F332727FD30954D891F
:105330005E89241735070CF099CDD1018C9190E04E
:10534000289FB001299F700D389F700D1124F40122
:10535000808140E3481BC6012FE501E00E94052241
:1053600085CD2F923F924F925F926F927F928F9254
:105370009F92AF92BF92CF92DF92EF92FF920F93E4
:105380001F93DF93CF93CDB7DEB762970FB6F89434
:10539000DEBF0FBECDBF6C016C837D834B8324E5E4
:1053A00030E0C20ED31EF60110822CEA3FEFC20E8F
:1053B000D31E1AE0A12EB12CAC0CBD1CB5E22B2ED5
:1053C000312C2C0C3D1CAEE44A2E512C4C0C5D1C97
:1053D0001A823FEF398310E0F0E37F2E6624A601A6
:1053E000495A5F4F5F834E83C601885A9F4F998702
:1053F0008887F601EA5AFF4FFB87EA8796012B5A06
:105400003F4F3D872C87E3E58E2E912C8C0C9D1C05
:105410005B81452F50E05F874E878B818150888B61
:10542000C6010E9419268823D9F3C50164E00E94B1
:10543000321E882369F4C50165E00E94321E88236C
:1054400039F4C50166E00E94321E882309F4D3C0F6
:10545000F4010081C50164E00E94321E882329F016
:10546000C1010E94852F1983CBC0C1010E948B2FDF
:10547000C7C0C50163E044E00E94461E882321F0B6
:105480001F5FC1010E94912FC50161E044E00E94AD
:10549000461E882321F01150C1010E94912F812FB7
:1054A000992787FD90952E853F858217930711F4E4
:1054B00010E002C017FD1889F4018081819F902DB2
:1054C00011248C5F682E691A28C0872D992787FDC3
:1054D0009095262D332727FD3095821B930B02973D
:1054E000D4F4898162960FB6F894DEBF0FBECDBFAB
:1054F000CF91DF911F910F91FF90EF90DF90CF90B0
:10550000BF90AF909F908F907F906F905F904F90E3
:105510003F902F900895F1E0FA83862D992787FD1B
:105520009095272D332727FD3095820F931F62E03A
:1055300070E00E948937762EEE81FF811082E88527
:10554000F985608321E0EA85FB852083EC85FD8574
:1055500010822C813D81C9019A8B898B00E0E12E5C
:10556000FF24E7FCF09420C0802F90E08E159F056B
:1055700069F423E0EE81FF812083F40180818E9D18
:10558000802D1124870DE885F9858083E989FA89C2
:1055900065917491C2010E9439350F5F29893A895A
:1055A0002E5F3F4F3A8B298B3B810317E8F2C201F4
:1055B00060E00E94F71EF40140814E9D402D1124B1
:1055C0004150470DC20160E024E50E947C1FC201EA
:1055D00061E00E94F71EF40100810E9D402D112410
:1055E0004250470D0D5FC20160E024E573E0E72EF5
:1055F0000E94EB2015CFFA81FF2309F066CF39CF47
:10560000802F90E0909581959F4F2E853F85AC012E
:10561000249FC001259F900D349F900D11246EEFA3
:10562000662E680E52CF2F923F924F925F926F92EA
:105630007F928F929F92AF92BF92CF92DF92EF9222
:10564000FF920F931F93DF93CF93CDB7DEB72B97C6
:105650000FB6F894DEBF0FBECDBF9B878A877A83D3
:1056600069835C834B838C0101591F4FF801808152
:10567000882309F422C18A859B858A5A9F4F9B877C
:105680008A8781E0EA85FB85808312921292E45535
:10569000F040FB87EA87108E9EE4E92EF12CEE0E97
:1056A000FF1EC70161E00E94F71E8AE0282E312C00
:1056B0008A859B85280E391EB5E26B2E712C680EEB
:1056C000791EE981FA81F491FD83A7E58A2E912C58
:1056D000880E991EF8E5CF2ED12CC80ED91EE2E512
:1056E0004E2E512C480E591E8D5A9F4F9F838E83EC
:1056F00070E7A72EB12C8A859B85A80EB91E198745
:1057000008878A859B850E9419268823D1F39D816D
:10571000992311F410E003C0EE81FF811081C701CD
:1057200060E040E02AEB37E00E9484218B819C817D
:10573000892B41F0145FC70160E0412F2B813C8130
:105740000E948421F40110828CE0F6018083C7015D
:1057500069817A810E94EE34F201208130E0C90132
:10576000880F991F820F931F909581959F4F8D5A97
:10577000F4018083EE81FF81208130E0C901880F30
:10578000991F820F931F909581959F4F835DF6011E
:105790008083F501808184FF04C0C7016AE378E05B
:1057A00003C0C70166E378E00E943935F201208129
:1057B00030E0C901880F991F820F931F9095819542
:1057C0009F4F8D5AF4018083F60180818F5F808323
:1057D000EA85FB8582A5882321F0C70162E378E092
:1057E00003C0C7016EE278E00E943935F201808182
:1057F00090E09C01220F331F280F391F309521950F
:105800003F4F2D5AF4012083F60180818F5F808302
:10581000C7016AE278E00E943935C10165E00E9463
:10582000321E882351F0EA85FB8562A56F5FC301B4
:105830000E94972FC3010E94912FC10164E00E9432
:10584000321E882399F4E885F9856081262F30E09F
:1058500040E050E0F50180819181A281B3818217FF
:105860009307A407B50708F16F3FF9F08A859B8578
:1058700081599F4F9B878A878FEFEA85FB858083BD
:10588000EF56F040FB87EA87C30160E00E94752D68
:10589000C3010E94852F81E0EA85FB85808F0DC0C2
:1058A0008A859B850E94EC242CCFC10166E00E9472
:1058B000321E882309F425CFF3CF2B960FB6F89428
:1058C000DEBF0FBECDBFCF91DF911F910F91FF9033
:1058D000EF90DF90CF90BF90AF909F908F907F9090
:1058E0006F905F904F903F902F90089540E050E070
:1058F0000E94132B0895AF92BF92CF92DF92EF9246
:105900000F93CF93DF936C018EE790E0C80ED91E02
:1059100082E3F601808381E090E0A0E0B0E0B29302
:10592000A293929382936F0185EF9FEFC80ED91EC9
:105930008FEFF601808381E99FEFC80ED91EC60163
:105940000E945424C6010E946B1DC6016FEF0E9485
:105950006F1D4AE0A42EB12CAC0CBD1CC5010E94E9
:10596000221EC5010E946C1EC60148960E94DC1DC5
:10597000C601825B9F4F6DE04BE020E10FE03EE00F
:10598000E32E0E948F23E601A596CE010E94A42F4C
:10599000C50165E00E94321E882329F0CE0160E037
:1059A0000E94972F06C0CE0160E478E040E00E949C
:1059B000842DDF91CF910F91EF90DF90CF90BF902A
:1059C000AF9008950F93DC01002309F069C06230A5
:1059D00009F443C0633030F4662359F0613009F0B4
:1059E0005FC00DC0633009F444C0643009F058C092
:1059F0004CC04B3008F04AE056964C9351C0842F6F
:105A000090E0880F991F1F962D913C915097280F79
:105A1000391FF9018591949190969C938E935F978D
:105A2000FC014591549114968C911497849F602D9C
:105A3000112491966C939197252F3327862F90E010
:105A40002817390708F4652F14968C911497689FCE
:105A5000802D112492968C9323C014968C911497C8
:105A6000489F802D112459968C9359975A962C93C0
:105A700017C014968C911497489F802D11245B9623
:105A80008C935B975C962C930BC014968C91149717
:105A9000489F802D11245D968C935D975E962C9384
:105AA0000F910895FC01222371F4648B8481489F37
:105AB000802D1124858B15A214A213A281E0878B5F
:105AC0008093DA06108E0895FC01662369F4178A24
:105AD000158A14A213A2108E1092DD061092DC0615
